{
  "_format": "hh-sol-artifact-1",
  "contractName": "AuctionPlatform",
  "sourceName": "contracts/AuctionPlatform.sol",
  "abi": [
    {
      "inputs": [
        {
          "internalType": "address",
          "name": "initialOwner",
          "type": "address"
        }
      ],
      "stateMutability": "nonpayable",
      "type": "constructor"
    },
    {
      "inputs": [
        {
          "internalType": "address",
          "name": "owner",
          "type": "address"
        }
      ],
      "name": "OwnableInvalidOwner",
      "type": "error"
    },
    {
      "inputs": [
        {
          "internalType": "address",
          "name": "account",
          "type": "address"
        }
      ],
      "name": "OwnableUnauthorizedAccount",
      "type": "error"
    },
    {
      "inputs": [],
      "name": "ReentrancyGuardReentrantCall",
      "type": "error"
    },
    {
      "anonymous": false,
      "inputs": [
        {
          "indexed": true,
          "internalType": "uint256",
          "name": "auctionId",
          "type": "uint256"
        },
        {
          "indexed": false,
          "internalType": "address",
          "name": "winner",
          "type": "address"
        },
        {
          "indexed": false,
          "internalType": "uint256",
          "name": "amount",
          "type": "uint256"
        }
      ],
      "name": "AuctionEnded",
      "type": "event"
    },
    {
      "anonymous": false,
      "inputs": [
        {
          "indexed": true,
          "internalType": "uint256",
          "name": "auctionId",
          "type": "uint256"
        },
        {
          "indexed": true,
          "internalType": "address",
          "name": "seller",
          "type": "address"
        },
        {
          "indexed": false,
          "internalType": "address",
          "name": "nftContract",
          "type": "address"
        },
        {
          "indexed": false,
          "internalType": "uint256",
          "name": "tokenId",
          "type": "uint256"
        },
        {
          "indexed": false,
          "internalType": "uint256",
          "name": "endTime",
          "type": "uint256"
        }
      ],
      "name": "AuctionStarted",
      "type": "event"
    },
    {
      "anonymous": false,
      "inputs": [
        {
          "indexed": true,
          "internalType": "uint256",
          "name": "auctionId",
          "type": "uint256"
        },
        {
          "indexed": true,
          "internalType": "address",
          "name": "bidder",
          "type": "address"
        },
        {
          "indexed": false,
          "internalType": "uint256",
          "name": "amount",
          "type": "uint256"
        }
      ],
      "name": "BidPlaced",
      "type": "event"
    },
    {
      "anonymous": false,
      "inputs": [
        {
          "indexed": true,
          "internalType": "address",
          "name": "previousOwner",
          "type": "address"
        },
        {
          "indexed": true,
          "internalType": "address",
          "name": "newOwner",
          "type": "address"
        }
      ],
      "name": "OwnershipTransferred",
      "type": "event"
    },
    {
      "anonymous": false,
      "inputs": [
        {
          "indexed": true,
          "internalType": "uint256",
          "name": "auctionId",
          "type": "uint256"
        },
        {
          "indexed": true,
          "internalType": "address",
          "name": "bidder",
          "type": "address"
        },
        {
          "indexed": false,
          "internalType": "uint256",
          "name": "amount",
          "type": "uint256"
        }
      ],
      "name": "Withdrawn",
      "type": "event"
    },
    {
      "inputs": [
        {
          "internalType": "uint256",
          "name": "",
          "type": "uint256"
        },
        {
          "internalType": "uint256",
          "name": "",
          "type": "uint256"
        }
      ],
      "name": "allBidders",
      "outputs": [
        {
          "internalType": "address",
          "name": "",
          "type": "address"
        }
      ],
      "stateMutability": "view",
      "type": "function"
    },
    {
      "inputs": [],
      "name": "auctionCounter",
      "outputs": [
        {
          "internalType": "uint256",
          "name": "",
          "type": "uint256"
        }
      ],
      "stateMutability": "view",
      "type": "function"
    },
    {
      "inputs": [
        {
          "internalType": "uint256",
          "name": "auctionId",
          "type": "uint256"
        }
      ],
      "name": "bid",
      "outputs": [],
      "stateMutability": "payable",
      "type": "function"
    },
    {
      "inputs": [
        {
          "internalType": "uint256",
          "name": "auctionId",
          "type": "uint256"
        }
      ],
      "name": "endAuction",
      "outputs": [],
      "stateMutability": "nonpayable",
      "type": "function"
    },
    {
      "inputs": [
        {
          "internalType": "uint256",
          "name": "auctionId",
          "type": "uint256"
        }
      ],
      "name": "getAuction",
      "outputs": [
        {
          "internalType": "address",
          "name": "seller",
          "type": "address"
        },
        {
          "internalType": "address",
          "name": "nftContract",
          "type": "address"
        },
        {
          "internalType": "uint256",
          "name": "tokenId",
          "type": "uint256"
        },
        {
          "internalType": "uint256",
          "name": "endTime",
          "type": "uint256"
        },
        {
          "internalType": "uint256",
          "name": "highestBid",
          "type": "uint256"
        },
        {
          "internalType": "address",
          "name": "highestBidder",
          "type": "address"
        },
        {
          "internalType": "bool",
          "name": "ended",
          "type": "bool"
        }
      ],
      "stateMutability": "view",
      "type": "function"
    },
    {
      "inputs": [
        {
          "internalType": "uint256",
          "name": "auctionId",
          "type": "uint256"
        },
        {
          "internalType": "address",
          "name": "bidder",
          "type": "address"
        }
      ],
      "name": "getPendingWithdrawal",
      "outputs": [
        {
          "internalType": "uint256",
          "name": "",
          "type": "uint256"
        }
      ],
      "stateMutability": "view",
      "type": "function"
    },
    {
      "inputs": [],
      "name": "owner",
      "outputs": [
        {
          "internalType": "address",
          "name": "",
          "type": "address"
        }
      ],
      "stateMutability": "view",
      "type": "function"
    },
    {
      "inputs": [],
      "name": "renounceOwnership",
      "outputs": [],
      "stateMutability": "nonpayable",
      "type": "function"
    },
    {
      "inputs": [
        {
          "internalType": "address",
          "name": "nftContract",
          "type": "address"
        },
        {
          "internalType": "uint256",
          "name": "tokenId",
          "type": "uint256"
        },
        {
          "internalType": "uint256",
          "name": "durationInSeconds",
          "type": "uint256"
        }
      ],
      "name": "startAuction",
      "outputs": [],
      "stateMutability": "nonpayable",
      "type": "function"
    },
    {
      "inputs": [
        {
          "internalType": "address",
          "name": "newOwner",
          "type": "address"
        }
      ],
      "name": "transferOwnership",
      "outputs": [],
      "stateMutability": "nonpayable",
      "type": "function"
    },
    {
      "inputs": [
        {
          "internalType": "uint256",
          "name": "auctionId",
          "type": "uint256"
        }
      ],
      "name": "withdraw",
      "outputs": [],
      "stateMutability": "nonpayable",
      "type": "function"
    }
  ],
  "bytecode": "0x608060405234801561001057600080fd5b50604051611a75380380611a75833981810160405281019061003291906101ec565b806001600081905550600073ffffffffffffffffffffffffffffffffffffffff168173ffffffffffffffffffffffffffffffffffffffff16036100ad5760006040517f1e4fbdf70000000000000000000000000000000000000000000000000000000081526004016100a49190610228565b60405180910390fd5b6100bc816100c360201b60201c565b5050610243565b6000600160009054906101000a900473ffffffffffffffffffffffffffffffffffffffff16905081600160006101000a81548173ffffffffffffffffffffffffffffffffffffffff021916908373ffffffffffffffffffffffffffffffffffffffff1602179055508173ffffffffffffffffffffffffffffffffffffffff168173ffffffffffffffffffffffffffffffffffffffff167f8be0079c531659141344cd1fd0a4f28419497f9722a3daafe3b4186f6b6457e060405160405180910390a35050565b600080fd5b600073ffffffffffffffffffffffffffffffffffffffff82169050919050565b60006101b98261018e565b9050919050565b6101c9816101ae565b81146101d457600080fd5b50565b6000815190506101e6816101c0565b92915050565b60006020828403121561020257610201610189565b5b6000610210848285016101d7565b91505092915050565b610222816101ae565b82525050565b600060208201905061023d6000830184610219565b92915050565b611823806102526000396000f3fe60806040526004361061009c5760003560e01c80638da5cb5b116100645780638da5cb5b14610169578063a7e7664414610194578063b9a2de3a146101bf578063d1e25e42146101e8578063e7ac32c914610225578063f2fde38b146102625761009c565b80632e1a7d4d146100a1578063454a2ab3146100ca57806356dd4755146100e6578063715018a61461010f57806378bd793514610126575b600080fd5b3480156100ad57600080fd5b506100c860048036038101906100c391906110f7565b61028b565b005b6100e460048036038101906100df91906110f7565b610483565b005b3480156100f257600080fd5b5061010d60048036038101906101089190611182565b610748565b005b34801561011b57600080fd5b506101246108ea565b005b34801561013257600080fd5b5061014d600480360381019061014891906110f7565b6108fe565b604051610160979695949392919061120e565b60405180910390f35b34801561017557600080fd5b5061017e6109c9565b60405161018b919061127d565b60405180910390f35b3480156101a057600080fd5b506101a96109f3565b6040516101b69190611298565b60405180910390f35b3480156101cb57600080fd5b506101e660048036038101906101e191906110f7565b6109f9565b005b3480156101f457600080fd5b5061020f600480360381019061020a91906112b3565b610de5565b60405161021c9190611298565b60405180910390f35b34801561023157600080fd5b5061024c600480360381019061024791906112f3565b610e43565b604051610259919061127d565b60405180910390f35b34801561026e57600080fd5b5061028960048036038101906102849190611333565b610e91565b005b610293610f17565b600060036000838152602001908152602001600020905060008160060160003373ffffffffffffffffffffffffffffffffffffffff1673ffffffffffffffffffffffffffffffffffffffff16815260200190815260200160002054905060008111610333576040517f08c379a000000000000000000000000000000000000000000000000000000000815260040161032a906113bd565b60405180910390fd5b60008260060160003373ffffffffffffffffffffffffffffffffffffffff1673ffffffffffffffffffffffffffffffffffffffff1681526020019081526020016000208190555060003373ffffffffffffffffffffffffffffffffffffffff16826040516103a09061140e565b60006040518083038185875af1925050503d80600081146103dd576040519150601f19603f3d011682016040523d82523d6000602084013e6103e2565b606091505b5050905080610426576040517f08c379a000000000000000000000000000000000000000000000000000000000815260040161041d9061146f565b60405180910390fd5b3373ffffffffffffffffffffffffffffffffffffffff16847fcf7d23a3cbe4e8b36ff82fd1b05b1b17373dc7804b4ebbd6e2356716ef2023728460405161046d9190611298565b60405180910390a3505050610480610f5d565b50565b6000600360008381526020019081526020016000209050806003015442106104e0576040517f08c379a00000000000000000000000000000000000000000000000000000000081526004016104d7906114db565b60405180910390fd5b80600401543411610526576040517f08c379a000000000000000000000000000000000000000000000000000000000815260040161051d90611547565b60405180910390fd5b6000816004015411801561058b5750600073ffffffffffffffffffffffffffffffffffffffff168160050160009054906101000a900473ffffffffffffffffffffffffffffffffffffffff1673ffffffffffffffffffffffffffffffffffffffff1614155b156106a95780600401548160060160008360050160009054906101000a900473ffffffffffffffffffffffffffffffffffffffff1673ffffffffffffffffffffffffffffffffffffffff1673ffffffffffffffffffffffffffffffffffffffff16815260200190815260200160002060008282546106099190611596565b92505081905550600460008381526020019081526020016000208160050160009054906101000a900473ffffffffffffffffffffffffffffffffffffffff169080600181540180825580915050600190039060005260206000200160009091909190916101000a81548173ffffffffffffffffffffffffffffffffffffffff021916908373ffffffffffffffffffffffffffffffffffffffff1602179055505b348160040181905550338160050160006101000a81548173ffffffffffffffffffffffffffffffffffffffff021916908373ffffffffffffffffffffffffffffffffffffffff1602179055503373ffffffffffffffffffffffffffffffffffffffff16827f0e54eff26401bf69b81b26f60bd85ef47f5d85275c1d268d84f68d6897431c473460405161073c9190611298565b60405180910390a35050565b8273ffffffffffffffffffffffffffffffffffffffff166323b872dd3330856040518463ffffffff1660e01b8152600401610785939291906115ca565b600060405180830381600087803b15801561079f57600080fd5b505af11580156107b3573d6000803e3d6000fd5b505050506000600260008154809291906107cc90611601565b9190505590506000600360008381526020019081526020016000209050338160000160006101000a81548173ffffffffffffffffffffffffffffffffffffffff021916908373ffffffffffffffffffffffffffffffffffffffff160217905550848160010160006101000a81548173ffffffffffffffffffffffffffffffffffffffff021916908373ffffffffffffffffffffffffffffffffffffffff16021790555083816002018190555082426108849190611596565b81600301819055503373ffffffffffffffffffffffffffffffffffffffff16827f3ed4e40af7bb642d2987461105fb1c1c8bb984fe6f41d0c694e7f727cb5b41be878785600301546040516108db93929190611649565b60405180910390a35050505050565b6108f2610f67565b6108fc6000610fee565b565b600080600080600080600080600360008a815260200190815260200160002090508060000160009054906101000a900473ffffffffffffffffffffffffffffffffffffffff168160010160009054906101000a900473ffffffffffffffffffffffffffffffffffffffff168260020154836003015484600401548560050160009054906101000a900473ffffffffffffffffffffffffffffffffffffffff168660050160149054906101000a900460ff16975097509750975097509750975050919395979092949650565b6000600160009054906101000a900473ffffffffffffffffffffffffffffffffffffffff16905090565b60025481565b610a01610f17565b60006003600083815260200190815260200160002090508060030154421015610a5f576040517f08c379a0000000000000000000000000000000000000000000000000000000008152600401610a56906116cc565b60405180910390fd5b8060050160149054906101000a900460ff1615610ab1576040517f08c379a0000000000000000000000000000000000000000000000000000000008152600401610aa890611738565b60405180910390fd5b60018160050160146101000a81548160ff021916908315150217905550600073ffffffffffffffffffffffffffffffffffffffff168160050160009054906101000a900473ffffffffffffffffffffffffffffffffffffffff1673ffffffffffffffffffffffffffffffffffffffff1614610cbb578060010160009054906101000a900473ffffffffffffffffffffffffffffffffffffffff1673ffffffffffffffffffffffffffffffffffffffff166323b872dd308360050160009054906101000a900473ffffffffffffffffffffffffffffffffffffffff1684600201546040518463ffffffff1660e01b8152600401610baf939291906115ca565b600060405180830381600087803b158015610bc957600080fd5b505af1158015610bdd573d6000803e3d6000fd5b5050505060008160000160009054906101000a900473ffffffffffffffffffffffffffffffffffffffff1673ffffffffffffffffffffffffffffffffffffffff168260040154604051610c2f9061140e565b60006040518083038185875af1925050503d8060008114610c6c576040519150601f19603f3d011682016040523d82523d6000602084013e610c71565b606091505b5050905080610cb5576040517f08c379a0000000000000000000000000000000000000000000000000000000008152600401610cac906117a4565b60405180910390fd5b50610d77565b8060010160009054906101000a900473ffffffffffffffffffffffffffffffffffffffff1673ffffffffffffffffffffffffffffffffffffffff166323b872dd308360000160009054906101000a900473ffffffffffffffffffffffffffffffffffffffff1684600201546040518463ffffffff1660e01b8152600401610d44939291906115ca565b600060405180830381600087803b158015610d5e57600080fd5b505af1158015610d72573d6000803e3d6000fd5b505050505b817fd2aa34a4fdbbc6dff6a3e56f46e0f3ae2a31d7785ff3487aa5c95c642acea5018260050160009054906101000a900473ffffffffffffffffffffffffffffffffffffffff168360040154604051610dd19291906117c4565b60405180910390a250610de2610f5d565b50565b60006003600084815260200190815260200160002060060160008373ffffffffffffffffffffffffffffffffffffffff1673ffffffffffffffffffffffffffffffffffffffff16815260200190815260200160002054905092915050565b60046020528160005260406000208181548110610e5f57600080fd5b906000526020600020016000915091509054906101000a900473ffffffffffffffffffffffffffffffffffffffff1681565b610e99610f67565b600073ffffffffffffffffffffffffffffffffffffffff168173ffffffffffffffffffffffffffffffffffffffff1603610f0b5760006040517f1e4fbdf7000000000000000000000000000000000000000000000000000000008152600401610f02919061127d565b60405180910390fd5b610f1481610fee565b50565b600260005403610f53576040517f3ee5aeb500000000000000000000000000000000000000000000000000000000815260040160405180910390fd5b6002600081905550565b6001600081905550565b610f6f6110b4565b73ffffffffffffffffffffffffffffffffffffffff16610f8d6109c9565b73ffffffffffffffffffffffffffffffffffffffff1614610fec57610fb06110b4565b6040517f118cdaa7000000000000000000000000000000000000000000000000000000008152600401610fe3919061127d565b60405180910390fd5b565b6000600160009054906101000a900473ffffffffffffffffffffffffffffffffffffffff16905081600160006101000a81548173ffffffffffffffffffffffffffffffffffffffff021916908373ffffffffffffffffffffffffffffffffffffffff1602179055508173ffffffffffffffffffffffffffffffffffffffff168173ffffffffffffffffffffffffffffffffffffffff167f8be0079c531659141344cd1fd0a4f28419497f9722a3daafe3b4186f6b6457e060405160405180910390a35050565b600033905090565b600080fd5b6000819050919050565b6110d4816110c1565b81146110df57600080fd5b50565b6000813590506110f1816110cb565b92915050565b60006020828403121561110d5761110c6110bc565b5b600061111b848285016110e2565b91505092915050565b600073ffffffffffffffffffffffffffffffffffffffff82169050919050565b600061114f82611124565b9050919050565b61115f81611144565b811461116a57600080fd5b50565b60008135905061117c81611156565b92915050565b60008060006060848603121561119b5761119a6110bc565b5b60006111a98682870161116d565b93505060206111ba868287016110e2565b92505060406111cb868287016110e2565b9150509250925092565b6111de81611144565b82525050565b6111ed816110c1565b82525050565b60008115159050919050565b611208816111f3565b82525050565b600060e082019050611223600083018a6111d5565b61123060208301896111d5565b61123d60408301886111e4565b61124a60608301876111e4565b61125760808301866111e4565b61126460a08301856111d5565b61127160c08301846111ff565b98975050505050505050565b600060208201905061129260008301846111d5565b92915050565b60006020820190506112ad60008301846111e4565b92915050565b600080604083850312156112ca576112c96110bc565b5b60006112d8858286016110e2565b92505060206112e98582860161116d565b9150509250929050565b6000806040838503121561130a576113096110bc565b5b6000611318858286016110e2565b9250506020611329858286016110e2565b9150509250929050565b600060208284031215611349576113486110bc565b5b60006113578482850161116d565b91505092915050565b600082825260208201905092915050565b7f4e6f7468696e6720746f20776974686472617700000000000000000000000000600082015250565b60006113a7601383611360565b91506113b282611371565b602082019050919050565b600060208201905081810360008301526113d68161139a565b9050919050565b600081905092915050565b50565b60006113f86000836113dd565b9150611403826113e8565b600082019050919050565b6000611419826113eb565b9150819050919050565b7f5769746864726177206661696c65640000000000000000000000000000000000600082015250565b6000611459600f83611360565b915061146482611423565b602082019050919050565b600060208201905081810360008301526114888161144c565b9050919050565b7f41756374696f6e20656e64656400000000000000000000000000000000000000600082015250565b60006114c5600d83611360565b91506114d08261148f565b602082019050919050565b600060208201905081810360008301526114f4816114b8565b9050919050565b7f42696420746f6f206c6f77000000000000000000000000000000000000000000600082015250565b6000611531600b83611360565b915061153c826114fb565b602082019050919050565b6000602082019050818103600083015261156081611524565b9050919050565b7f4e487b7100000000000000000000000000000000000000000000000000000000600052601160045260246000fd5b60006115a1826110c1565b91506115ac836110c1565b92508282019050808211156115c4576115c3611567565b5b92915050565b60006060820190506115df60008301866111d5565b6115ec60208301856111d5565b6115f960408301846111e4565b949350505050565b600061160c826110c1565b91507fffffffffffffffffffffffffffffffffffffffffffffffffffffffffffffffff820361163e5761163d611567565b5b600182019050919050565b600060608201905061165e60008301866111d5565b61166b60208301856111e4565b61167860408301846111e4565b949350505050565b7f41756374696f6e206e6f742079657420656e6465640000000000000000000000600082015250565b60006116b6601583611360565b91506116c182611680565b602082019050919050565b600060208201905081810360008301526116e5816116a9565b9050919050565b7f41756374696f6e20616c726561647920656e6465640000000000000000000000600082015250565b6000611722601583611360565b915061172d826116ec565b602082019050919050565b6000602082019050818103600083015261175181611715565b9050919050565b7f5061796f7574206661696c656400000000000000000000000000000000000000600082015250565b600061178e600d83611360565b915061179982611758565b602082019050919050565b600060208201905081810360008301526117bd81611781565b9050919050565b60006040820190506117d960008301856111d5565b6117e660208301846111e4565b939250505056fea26469706673582212200fc84cc292bbcab8a1c2b805f2226462985dbc6a3bfd07a59fbee61376dd874f64736f6c634300081c0033",
  "linkReferences": {},
  "deployedLinkReferences": {}
}