{
  "_format": "hh-sol-artifact-1",
  "contractName": "PokemonCard",
  "sourceName": "contracts/PokemonCard.sol",
  "abi": [
    {
      "inputs": [],
      "stateMutability": "nonpayable",
      "type": "constructor"
    },
    {
      "inputs": [
        {
          "internalType": "address",
          "name": "sender",
          "type": "address"
        },
        {
          "internalType": "uint256",
          "name": "tokenId",
          "type": "uint256"
        },
        {
          "internalType": "address",
          "name": "owner",
          "type": "address"
        }
      ],
      "name": "ERC721IncorrectOwner",
      "type": "error"
    },
    {
      "inputs": [
        {
          "internalType": "address",
          "name": "operator",
          "type": "address"
        },
        {
          "internalType": "uint256",
          "name": "tokenId",
          "type": "uint256"
        }
      ],
      "name": "ERC721InsufficientApproval",
      "type": "error"
    },
    {
      "inputs": [
        {
          "internalType": "address",
          "name": "approver",
          "type": "address"
        }
      ],
      "name": "ERC721InvalidApprover",
      "type": "error"
    },
    {
      "inputs": [
        {
          "internalType": "address",
          "name": "operator",
          "type": "address"
        }
      ],
      "name": "ERC721InvalidOperator",
      "type": "error"
    },
    {
      "inputs": [
        {
          "internalType": "address",
          "name": "owner",
          "type": "address"
        }
      ],
      "name": "ERC721InvalidOwner",
      "type": "error"
    },
    {
      "inputs": [
        {
          "internalType": "address",
          "name": "receiver",
          "type": "address"
        }
      ],
      "name": "ERC721InvalidReceiver",
      "type": "error"
    },
    {
      "inputs": [
        {
          "internalType": "address",
          "name": "sender",
          "type": "address"
        }
      ],
      "name": "ERC721InvalidSender",
      "type": "error"
    },
    {
      "inputs": [
        {
          "internalType": "uint256",
          "name": "tokenId",
          "type": "uint256"
        }
      ],
      "name": "ERC721NonexistentToken",
      "type": "error"
    },
    {
      "inputs": [
        {
          "internalType": "address",
          "name": "owner",
          "type": "address"
        }
      ],
      "name": "OwnableInvalidOwner",
      "type": "error"
    },
    {
      "inputs": [
        {
          "internalType": "address",
          "name": "account",
          "type": "address"
        }
      ],
      "name": "OwnableUnauthorizedAccount",
      "type": "error"
    },
    {
      "anonymous": false,
      "inputs": [
        {
          "indexed": true,
          "internalType": "address",
          "name": "owner",
          "type": "address"
        },
        {
          "indexed": true,
          "internalType": "address",
          "name": "approved",
          "type": "address"
        },
        {
          "indexed": true,
          "internalType": "uint256",
          "name": "tokenId",
          "type": "uint256"
        }
      ],
      "name": "Approval",
      "type": "event"
    },
    {
      "anonymous": false,
      "inputs": [
        {
          "indexed": true,
          "internalType": "address",
          "name": "owner",
          "type": "address"
        },
        {
          "indexed": true,
          "internalType": "address",
          "name": "operator",
          "type": "address"
        },
        {
          "indexed": false,
          "internalType": "bool",
          "name": "approved",
          "type": "bool"
        }
      ],
      "name": "ApprovalForAll",
      "type": "event"
    },
    {
      "anonymous": false,
      "inputs": [
        {
          "indexed": false,
          "internalType": "uint256",
          "name": "_fromTokenId",
          "type": "uint256"
        },
        {
          "indexed": false,
          "internalType": "uint256",
          "name": "_toTokenId",
          "type": "uint256"
        }
      ],
      "name": "BatchMetadataUpdate",
      "type": "event"
    },
    {
      "anonymous": false,
      "inputs": [
        {
          "indexed": false,
          "internalType": "uint256",
          "name": "_tokenId",
          "type": "uint256"
        }
      ],
      "name": "MetadataUpdate",
      "type": "event"
    },
    {
      "anonymous": false,
      "inputs": [
        {
          "indexed": true,
          "internalType": "address",
          "name": "previousOwner",
          "type": "address"
        },
        {
          "indexed": true,
          "internalType": "address",
          "name": "newOwner",
          "type": "address"
        }
      ],
      "name": "OwnershipTransferred",
      "type": "event"
    },
    {
      "anonymous": false,
      "inputs": [
        {
          "indexed": true,
          "internalType": "address",
          "name": "from",
          "type": "address"
        },
        {
          "indexed": true,
          "internalType": "address",
          "name": "to",
          "type": "address"
        },
        {
          "indexed": true,
          "internalType": "uint256",
          "name": "tokenId",
          "type": "uint256"
        }
      ],
      "name": "Transfer",
      "type": "event"
    },
    {
      "inputs": [
        {
          "internalType": "address",
          "name": "to",
          "type": "address"
        },
        {
          "internalType": "uint256",
          "name": "tokenId",
          "type": "uint256"
        }
      ],
      "name": "approve",
      "outputs": [],
      "stateMutability": "nonpayable",
      "type": "function"
    },
    {
      "inputs": [
        {
          "internalType": "address",
          "name": "owner",
          "type": "address"
        }
      ],
      "name": "balanceOf",
      "outputs": [
        {
          "internalType": "uint256",
          "name": "",
          "type": "uint256"
        }
      ],
      "stateMutability": "view",
      "type": "function"
    },
    {
      "inputs": [
        {
          "internalType": "uint256",
          "name": "tokenId",
          "type": "uint256"
        }
      ],
      "name": "getApproved",
      "outputs": [
        {
          "internalType": "address",
          "name": "",
          "type": "address"
        }
      ],
      "stateMutability": "view",
      "type": "function"
    },
    {
      "inputs": [
        {
          "internalType": "address",
          "name": "owner",
          "type": "address"
        },
        {
          "internalType": "address",
          "name": "operator",
          "type": "address"
        }
      ],
      "name": "isApprovedForAll",
      "outputs": [
        {
          "internalType": "bool",
          "name": "",
          "type": "bool"
        }
      ],
      "stateMutability": "view",
      "type": "function"
    },
    {
      "inputs": [
        {
          "internalType": "address",
          "name": "recipient",
          "type": "address"
        },
        {
          "internalType": "string",
          "name": "tokenURI",
          "type": "string"
        }
      ],
      "name": "mintCard",
      "outputs": [
        {
          "internalType": "uint256",
          "name": "",
          "type": "uint256"
        }
      ],
      "stateMutability": "nonpayable",
      "type": "function"
    },
    {
      "inputs": [],
      "name": "name",
      "outputs": [
        {
          "internalType": "string",
          "name": "",
          "type": "string"
        }
      ],
      "stateMutability": "view",
      "type": "function"
    },
    {
      "inputs": [],
      "name": "owner",
      "outputs": [
        {
          "internalType": "address",
          "name": "",
          "type": "address"
        }
      ],
      "stateMutability": "view",
      "type": "function"
    },
    {
      "inputs": [
        {
          "internalType": "uint256",
          "name": "tokenId",
          "type": "uint256"
        }
      ],
      "name": "ownerOf",
      "outputs": [
        {
          "internalType": "address",
          "name": "",
          "type": "address"
        }
      ],
      "stateMutability": "view",
      "type": "function"
    },
    {
      "inputs": [
        {
          "internalType": "uint256",
          "name": "tokenId",
          "type": "uint256"
        }
      ],
      "name": "ownerOfToken",
      "outputs": [
        {
          "internalType": "address",
          "name": "",
          "type": "address"
        }
      ],
      "stateMutability": "view",
      "type": "function"
    },
    {
      "inputs": [],
      "name": "renounceOwnership",
      "outputs": [],
      "stateMutability": "nonpayable",
      "type": "function"
    },
    {
      "inputs": [
        {
          "internalType": "address",
          "name": "from",
          "type": "address"
        },
        {
          "internalType": "address",
          "name": "to",
          "type": "address"
        },
        {
          "internalType": "uint256",
          "name": "tokenId",
          "type": "uint256"
        }
      ],
      "name": "safeTransferFrom",
      "outputs": [],
      "stateMutability": "nonpayable",
      "type": "function"
    },
    {
      "inputs": [
        {
          "internalType": "address",
          "name": "from",
          "type": "address"
        },
        {
          "internalType": "address",
          "name": "to",
          "type": "address"
        },
        {
          "internalType": "uint256",
          "name": "tokenId",
          "type": "uint256"
        },
        {
          "internalType": "bytes",
          "name": "data",
          "type": "bytes"
        }
      ],
      "name": "safeTransferFrom",
      "outputs": [],
      "stateMutability": "nonpayable",
      "type": "function"
    },
    {
      "inputs": [
        {
          "internalType": "address",
          "name": "operator",
          "type": "address"
        },
        {
          "internalType": "bool",
          "name": "approved",
          "type": "bool"
        }
      ],
      "name": "setApprovalForAll",
      "outputs": [],
      "stateMutability": "nonpayable",
      "type": "function"
    },
    {
      "inputs": [
        {
          "internalType": "bytes4",
          "name": "interfaceId",
          "type": "bytes4"
        }
      ],
      "name": "supportsInterface",
      "outputs": [
        {
          "internalType": "bool",
          "name": "",
          "type": "bool"
        }
      ],
      "stateMutability": "view",
      "type": "function"
    },
    {
      "inputs": [],
      "name": "symbol",
      "outputs": [
        {
          "internalType": "string",
          "name": "",
          "type": "string"
        }
      ],
      "stateMutability": "view",
      "type": "function"
    },
    {
      "inputs": [
        {
          "internalType": "uint256",
          "name": "tokenId",
          "type": "uint256"
        }
      ],
      "name": "tokenURI",
      "outputs": [
        {
          "internalType": "string",
          "name": "",
          "type": "string"
        }
      ],
      "stateMutability": "view",
      "type": "function"
    },
    {
      "inputs": [],
      "name": "totalSupply",
      "outputs": [
        {
          "internalType": "uint256",
          "name": "",
          "type": "uint256"
        }
      ],
      "stateMutability": "view",
      "type": "function"
    },
    {
      "inputs": [
        {
          "internalType": "address",
          "name": "from",
          "type": "address"
        },
        {
          "internalType": "address",
          "name": "to",
          "type": "address"
        },
        {
          "internalType": "uint256",
          "name": "tokenId",
          "type": "uint256"
        }
      ],
      "name": "transferFrom",
      "outputs": [],
      "stateMutability": "nonpayable",
      "type": "function"
    },
    {
      "inputs": [
        {
          "internalType": "address",
          "name": "newOwner",
          "type": "address"
        }
      ],
      "name": "transferOwnership",
      "outputs": [],
      "stateMutability": "nonpayable",
      "type": "function"
    }
  ],
  "bytecode": "0x608060405234801561001057600080fd5b50336040518060400160405280600b81526020017f506f6b656d6f6e436172640000000000000000000000000000000000000000008152506040518060400160405280600381526020017f504b430000000000000000000000000000000000000000000000000000000000815250816000908161008d919061043d565b50806001908161009d919061043d565b505050600073ffffffffffffffffffffffffffffffffffffffff168173ffffffffffffffffffffffffffffffffffffffff16036101125760006040517f1e4fbdf70000000000000000000000000000000000000000000000000000000081526004016101099190610550565b60405180910390fd5b6101218161012760201b60201c565b5061056b565b6000600760009054906101000a900473ffffffffffffffffffffffffffffffffffffffff16905081600760006101000a81548173ffffffffffffffffffffffffffffffffffffffff021916908373ffffffffffffffffffffffffffffffffffffffff1602179055508173ffffffffffffffffffffffffffffffffffffffff168173ffffffffffffffffffffffffffffffffffffffff167f8be0079c531659141344cd1fd0a4f28419497f9722a3daafe3b4186f6b6457e060405160405180910390a35050565b600081519050919050565b7f4e487b7100000000000000000000000000000000000000000000000000000000600052604160045260246000fd5b7f4e487b7100000000000000000000000000000000000000000000000000000000600052602260045260246000fd5b6000600282049050600182168061026e57607f821691505b60208210810361028157610280610227565b5b50919050565b60008190508160005260206000209050919050565b60006020601f8301049050919050565b600082821b905092915050565b6000600883026102e97fffffffffffffffffffffffffffffffffffffffffffffffffffffffffffffffff826102ac565b6102f386836102ac565b95508019841693508086168417925050509392505050565b6000819050919050565b6000819050919050565b600061033a6103356103308461030b565b610315565b61030b565b9050919050565b6000819050919050565b6103548361031f565b61036861036082610341565b8484546102b9565b825550505050565b600090565b61037d610370565b61038881848461034b565b505050565b5b818110156103ac576103a1600082610375565b60018101905061038e565b5050565b601f8211156103f1576103c281610287565b6103cb8461029c565b810160208510156103da578190505b6103ee6103e68561029c565b83018261038d565b50505b505050565b600082821c905092915050565b6000610414600019846008026103f6565b1980831691505092915050565b600061042d8383610403565b9150826002028217905092915050565b610446826101ed565b67ffffffffffffffff81111561045f5761045e6101f8565b5b6104698254610256565b6104748282856103b0565b600060209050601f8311600181146104a75760008415610495578287015190505b61049f8582610421565b865550610507565b601f1984166104b586610287565b60005b828110156104dd578489015182556001820191506020850194506020810190506104b8565b868310156104fa57848901516104f6601f891682610403565b8355505b6001600288020188555050505b505050505050565b600073ffffffffffffffffffffffffffffffffffffffff82169050919050565b600061053a8261050f565b9050919050565b61054a8161052f565b82525050565b60006020820190506105656000830184610541565b92915050565b6127018061057a6000396000f3fe608060405234801561001057600080fd5b50600436106101215760003560e01c8063715018a6116100ad578063c57ac5d611610071578063c57ac5d6146102f4578063c87b56dd14610324578063cd7e53cc14610354578063e985e9c514610384578063f2fde38b146103b457610121565b8063715018a6146102765780638da5cb5b1461028057806395d89b411461029e578063a22cb465146102bc578063b88d4fde146102d857610121565b806318160ddd116100f457806318160ddd146101c057806323b872dd146101de57806342842e0e146101fa5780636352211e1461021657806370a082311461024657610121565b806301ffc9a71461012657806306fdde0314610156578063081812fc14610174578063095ea7b3146101a4575b600080fd5b610140600480360381019061013b9190611b59565b6103d0565b60405161014d9190611ba1565b60405180910390f35b61015e610431565b60405161016b9190611c4c565b60405180910390f35b61018e60048036038101906101899190611ca4565b6104c3565b60405161019b9190611d12565b60405180910390f35b6101be60048036038101906101b99190611d59565b6104df565b005b6101c86104f5565b6040516101d59190611da8565b60405180910390f35b6101f860048036038101906101f39190611dc3565b6104ff565b005b610214600480360381019061020f9190611dc3565b610601565b005b610230600480360381019061022b9190611ca4565b610621565b60405161023d9190611d12565b60405180910390f35b610260600480360381019061025b9190611e16565b610633565b60405161026d9190611da8565b60405180910390f35b61027e6106ed565b005b610288610701565b6040516102959190611d12565b60405180910390f35b6102a661072b565b6040516102b39190611c4c565b60405180910390f35b6102d660048036038101906102d19190611e6f565b6107bd565b005b6102f260048036038101906102ed9190611fe4565b6107d3565b005b61030e60048036038101906103099190611ca4565b6107f8565b60405161031b9190611d12565b60405180910390f35b61033e60048036038101906103399190611ca4565b61080a565b60405161034b9190611c4c565b60405180910390f35b61036e60048036038101906103699190612108565b61091d565b60405161037b9190611da8565b60405180910390f35b61039e60048036038101906103999190612164565b610962565b6040516103ab9190611ba1565b60405180910390f35b6103ce60048036038101906103c99190611e16565b6109f6565b005b6000634906490660e01b7bffffffffffffffffffffffffffffffffffffffffffffffffffffffff1916827bffffffffffffffffffffffffffffffffffffffffffffffffffffffff1916148061042a575061042982610a7c565b5b9050919050565b606060008054610440906121d3565b80601f016020809104026020016040519081016040528092919081815260200182805461046c906121d3565b80156104b95780601f1061048e576101008083540402835291602001916104b9565b820191906000526020600020905b81548152906001019060200180831161049c57829003601f168201915b5050505050905090565b60006104ce82610b5e565b506104d882610be6565b9050919050565b6104f182826104ec610c23565b610c2b565b5050565b6000600854905090565b600073ffffffffffffffffffffffffffffffffffffffff168273ffffffffffffffffffffffffffffffffffffffff16036105715760006040517f64a0ae920000000000000000000000000000000000000000000000000000000081526004016105689190611d12565b60405180910390fd5b60006105858383610580610c23565b610c3d565b90508373ffffffffffffffffffffffffffffffffffffffff168173ffffffffffffffffffffffffffffffffffffffff16146105fb578382826040517f64283d7b0000000000000000000000000000000000000000000000000000000081526004016105f293929190612204565b60405180910390fd5b50505050565b61061c838383604051806020016040528060008152506107d3565b505050565b600061062c82610b5e565b9050919050565b60008073ffffffffffffffffffffffffffffffffffffffff168273ffffffffffffffffffffffffffffffffffffffff16036106a65760006040517f89c62b6400000000000000000000000000000000000000000000000000000000815260040161069d9190611d12565b60405180910390fd5b600360008373ffffffffffffffffffffffffffffffffffffffff1673ffffffffffffffffffffffffffffffffffffffff168152602001908152602001600020549050919050565b6106f5610e57565b6106ff6000610ede565b565b6000600760009054906101000a900473ffffffffffffffffffffffffffffffffffffffff16905090565b60606001805461073a906121d3565b80601f0160208091040260200160405190810160405280929190818152602001828054610766906121d3565b80156107b35780601f10610788576101008083540402835291602001916107b3565b820191906000526020600020905b81548152906001019060200180831161079657829003601f168201915b5050505050905090565b6107cf6107c8610c23565b8383610fa4565b5050565b6107de8484846104ff565b6107f26107e9610c23565b85858585611113565b50505050565b600061080382610621565b9050919050565b606061081582610b5e565b506000600660008481526020019081526020016000208054610836906121d3565b80601f0160208091040260200160405190810160405280929190818152602001828054610862906121d3565b80156108af5780601f10610884576101008083540402835291602001916108af565b820191906000526020600020905b81548152906001019060200180831161089257829003601f168201915b5050505050905060006108c06112c4565b905060008151036108d5578192505050610918565b60008251111561090a5780826040516020016108f2929190612277565b60405160208183030381529060405292505050610918565b610913846112db565b925050505b919050565b6000610927610e57565b6008600081548092919061093a906122ca565b919050555061094b83600854611344565b61095760085483611362565b600854905092915050565b6000600560008473ffffffffffffffffffffffffffffffffffffffff1673ffffffffffffffffffffffffffffffffffffffff16815260200190815260200160002060008373ffffffffffffffffffffffffffffffffffffffff1673ffffffffffffffffffffffffffffffffffffffff16815260200190815260200160002060009054906101000a900460ff16905092915050565b6109fe610e57565b600073ffffffffffffffffffffffffffffffffffffffff168173ffffffffffffffffffffffffffffffffffffffff1603610a705760006040517f1e4fbdf7000000000000000000000000000000000000000000000000000000008152600401610a679190611d12565b60405180910390fd5b610a7981610ede565b50565b60007f80ac58cd000000000000000000000000000000000000000000000000000000007bffffffffffffffffffffffffffffffffffffffffffffffffffffffff1916827bffffffffffffffffffffffffffffffffffffffffffffffffffffffff19161480610b4757507f5b5e139f000000000000000000000000000000000000000000000000000000007bffffffffffffffffffffffffffffffffffffffffffffffffffffffff1916827bffffffffffffffffffffffffffffffffffffffffffffffffffffffff1916145b80610b575750610b56826113be565b5b9050919050565b600080610b6a83611428565b9050600073ffffffffffffffffffffffffffffffffffffffff168173ffffffffffffffffffffffffffffffffffffffff1603610bdd57826040517f7e273289000000000000000000000000000000000000000000000000000000008152600401610bd49190611da8565b60405180910390fd5b80915050919050565b60006004600083815260200190815260200160002060009054906101000a900473ffffffffffffffffffffffffffffffffffffffff169050919050565b600033905090565b610c388383836001611465565b505050565b600080610c4984611428565b9050600073ffffffffffffffffffffffffffffffffffffffff168373ffffffffffffffffffffffffffffffffffffffff1614610c8b57610c8a81848661162a565b5b600073ffffffffffffffffffffffffffffffffffffffff168173ffffffffffffffffffffffffffffffffffffffff1614610d1c57610ccd600085600080611465565b6001600360008373ffffffffffffffffffffffffffffffffffffffff1673ffffffffffffffffffffffffffffffffffffffff168152602001908152602001600020600082825403925050819055505b600073ffffffffffffffffffffffffffffffffffffffff168573ffffffffffffffffffffffffffffffffffffffff1614610d9f576001600360008773ffffffffffffffffffffffffffffffffffffffff1673ffffffffffffffffffffffffffffffffffffffff168152602001908152602001600020600082825401925050819055505b846002600086815260200190815260200160002060006101000a81548173ffffffffffffffffffffffffffffffffffffffff021916908373ffffffffffffffffffffffffffffffffffffffff160217905550838573ffffffffffffffffffffffffffffffffffffffff168273ffffffffffffffffffffffffffffffffffffffff167fddf252ad1be2c89b69c2b068fc378daa952ba7f163c4a11628f55a4df523b3ef60405160405180910390a4809150509392505050565b610e5f610c23565b73ffffffffffffffffffffffffffffffffffffffff16610e7d610701565b73ffffffffffffffffffffffffffffffffffffffff1614610edc57610ea0610c23565b6040517f118cdaa7000000000000000000000000000000000000000000000000000000008152600401610ed39190611d12565b60405180910390fd5b565b6000600760009054906101000a900473ffffffffffffffffffffffffffffffffffffffff16905081600760006101000a81548173ffffffffffffffffffffffffffffffffffffffff021916908373ffffffffffffffffffffffffffffffffffffffff1602179055508173ffffffffffffffffffffffffffffffffffffffff168173ffffffffffffffffffffffffffffffffffffffff167f8be0079c531659141344cd1fd0a4f28419497f9722a3daafe3b4186f6b6457e060405160405180910390a35050565b600073ffffffffffffffffffffffffffffffffffffffff168273ffffffffffffffffffffffffffffffffffffffff160361101557816040517f5b08ba1800000000000000000000000000000000000000000000000000000000815260040161100c9190611d12565b60405180910390fd5b80600560008573ffffffffffffffffffffffffffffffffffffffff1673ffffffffffffffffffffffffffffffffffffffff16815260200190815260200160002060008473ffffffffffffffffffffffffffffffffffffffff1673ffffffffffffffffffffffffffffffffffffffff16815260200190815260200160002060006101000a81548160ff0219169083151502179055508173ffffffffffffffffffffffffffffffffffffffff168373ffffffffffffffffffffffffffffffffffffffff167f17307eab39ab6107e8899845ad3d59bd9653f200f220920489ca2b5937696c31836040516111069190611ba1565b60405180910390a3505050565b60008373ffffffffffffffffffffffffffffffffffffffff163b11156112bd578273ffffffffffffffffffffffffffffffffffffffff1663150b7a02868685856040518563ffffffff1660e01b81526004016111729493929190612367565b6020604051808303816000875af19250505080156111ae57506040513d601f19601f820116820180604052508101906111ab91906123c8565b60015b611232573d80600081146111de576040519150601f19603f3d011682016040523d82523d6000602084013e6111e3565b606091505b50600081510361122a57836040517f64a0ae920000000000000000000000000000000000000000000000000000000081526004016112219190611d12565b60405180910390fd5b805181602001fd5b63150b7a0260e01b7bffffffffffffffffffffffffffffffffffffffffffffffffffffffff1916817bffffffffffffffffffffffffffffffffffffffffffffffffffffffff1916146112bb57836040517f64a0ae920000000000000000000000000000000000000000000000000000000081526004016112b29190611d12565b60405180910390fd5b505b5050505050565b606060405180602001604052806000815250905090565b60606112e682610b5e565b5060006112f16112c4565b90506000815111611311576040518060200160405280600081525061133c565b8061131b846116ee565b60405160200161132c929190612277565b6040516020818303038152906040525b915050919050565b61135e8282604051806020016040528060008152506117bc565b5050565b8060066000848152602001908152602001600020908161138291906125a1565b507ff8e1a15aba9398e019f0b49df1a4fde98ee17ae345cb5f6b5e2c27f5033e8ce7826040516113b29190611da8565b60405180910390a15050565b60007f01ffc9a7000000000000000000000000000000000000000000000000000000007bffffffffffffffffffffffffffffffffffffffffffffffffffffffff1916827bffffffffffffffffffffffffffffffffffffffffffffffffffffffff1916149050919050565b60006002600083815260200190815260200160002060009054906101000a900473ffffffffffffffffffffffffffffffffffffffff169050919050565b808061149e5750600073ffffffffffffffffffffffffffffffffffffffff168273ffffffffffffffffffffffffffffffffffffffff1614155b156115d25760006114ae84610b5e565b9050600073ffffffffffffffffffffffffffffffffffffffff168373ffffffffffffffffffffffffffffffffffffffff161415801561151957508273ffffffffffffffffffffffffffffffffffffffff168173ffffffffffffffffffffffffffffffffffffffff1614155b801561152c575061152a8184610962565b155b1561156e57826040517fa9fbf51f0000000000000000000000000000000000000000000000000000000081526004016115659190611d12565b60405180910390fd5b81156115d057838573ffffffffffffffffffffffffffffffffffffffff168273ffffffffffffffffffffffffffffffffffffffff167f8c5be1e5ebec7d5bd14f71427d1e84f3dd0314c0f7b2291e5b200ac8c7c3b92560405160405180910390a45b505b836004600085815260200190815260200160002060006101000a81548173ffffffffffffffffffffffffffffffffffffffff021916908373ffffffffffffffffffffffffffffffffffffffff16021790555050505050565b6116358383836117e0565b6116e957600073ffffffffffffffffffffffffffffffffffffffff168373ffffffffffffffffffffffffffffffffffffffff16036116aa57806040517f7e2732890000000000000000000000000000000000000000000000000000000081526004016116a19190611da8565b60405180910390fd5b81816040517f177e802f0000000000000000000000000000000000000000000000000000000081526004016116e0929190612673565b60405180910390fd5b505050565b6060600060016116fd846118a1565b01905060008167ffffffffffffffff81111561171c5761171b611eb9565b5b6040519080825280601f01601f19166020018201604052801561174e5781602001600182028036833780820191505090505b509050600082602001820190505b6001156117b1578080600190039150507f3031323334353637383961626364656600000000000000000000000000000000600a86061a8153600a85816117a5576117a461269c565b5b0494506000850361175c575b819350505050919050565b6117c683836119f4565b6117db6117d1610c23565b6000858585611113565b505050565b60008073ffffffffffffffffffffffffffffffffffffffff168373ffffffffffffffffffffffffffffffffffffffff161415801561189857508273ffffffffffffffffffffffffffffffffffffffff168473ffffffffffffffffffffffffffffffffffffffff16148061185957506118588484610962565b5b8061189757508273ffffffffffffffffffffffffffffffffffffffff1661187f83610be6565b73ffffffffffffffffffffffffffffffffffffffff16145b5b90509392505050565b600080600090507a184f03e93ff9f4daa797ed6e38ed64bf6a1f01000000000000000083106118ff577a184f03e93ff9f4daa797ed6e38ed64bf6a1f01000000000000000083816118f5576118f461269c565b5b0492506040810190505b6d04ee2d6d415b85acef8100000000831061193c576d04ee2d6d415b85acef810000000083816119325761193161269c565b5b0492506020810190505b662386f26fc10000831061196b57662386f26fc1000083816119615761196061269c565b5b0492506010810190505b6305f5e1008310611994576305f5e100838161198a5761198961269c565b5b0492506008810190505b61271083106119b95761271083816119af576119ae61269c565b5b0492506004810190505b606483106119dc57606483816119d2576119d161269c565b5b0492506002810190505b600a83106119eb576001810190505b80915050919050565b600073ffffffffffffffffffffffffffffffffffffffff168273ffffffffffffffffffffffffffffffffffffffff1603611a665760006040517f64a0ae92000000000000000000000000000000000000000000000000000000008152600401611a5d9190611d12565b60405180910390fd5b6000611a7483836000610c3d565b9050600073ffffffffffffffffffffffffffffffffffffffff168173ffffffffffffffffffffffffffffffffffffffff1614611ae85760006040517f73c6ac6e000000000000000000000000000000000000000000000000000000008152600401611adf9190611d12565b60405180910390fd5b505050565b6000604051905090565b600080fd5b600080fd5b60007fffffffff0000000000000000000000000000000000000000000000000000000082169050919050565b611b3681611b01565b8114611b4157600080fd5b50565b600081359050611b5381611b2d565b92915050565b600060208284031215611b6f57611b6e611af7565b5b6000611b7d84828501611b44565b91505092915050565b60008115159050919050565b611b9b81611b86565b82525050565b6000602082019050611bb66000830184611b92565b92915050565b600081519050919050565b600082825260208201905092915050565b60005b83811015611bf6578082015181840152602081019050611bdb565b60008484015250505050565b6000601f19601f8301169050919050565b6000611c1e82611bbc565b611c288185611bc7565b9350611c38818560208601611bd8565b611c4181611c02565b840191505092915050565b60006020820190508181036000830152611c668184611c13565b905092915050565b6000819050919050565b611c8181611c6e565b8114611c8c57600080fd5b50565b600081359050611c9e81611c78565b92915050565b600060208284031215611cba57611cb9611af7565b5b6000611cc884828501611c8f565b91505092915050565b600073ffffffffffffffffffffffffffffffffffffffff82169050919050565b6000611cfc82611cd1565b9050919050565b611d0c81611cf1565b82525050565b6000602082019050611d276000830184611d03565b92915050565b611d3681611cf1565b8114611d4157600080fd5b50565b600081359050611d5381611d2d565b92915050565b60008060408385031215611d7057611d6f611af7565b5b6000611d7e85828601611d44565b9250506020611d8f85828601611c8f565b9150509250929050565b611da281611c6e565b82525050565b6000602082019050611dbd6000830184611d99565b92915050565b600080600060608486031215611ddc57611ddb611af7565b5b6000611dea86828701611d44565b9350506020611dfb86828701611d44565b9250506040611e0c86828701611c8f565b9150509250925092565b600060208284031215611e2c57611e2b611af7565b5b6000611e3a84828501611d44565b91505092915050565b611e4c81611b86565b8114611e5757600080fd5b50565b600081359050611e6981611e43565b92915050565b60008060408385031215611e8657611e85611af7565b5b6000611e9485828601611d44565b9250506020611ea585828601611e5a565b9150509250929050565b600080fd5b600080fd5b7f4e487b7100000000000000000000000000000000000000000000000000000000600052604160045260246000fd5b611ef182611c02565b810181811067ffffffffffffffff82111715611f1057611f0f611eb9565b5b80604052505050565b6000611f23611aed565b9050611f2f8282611ee8565b919050565b600067ffffffffffffffff821115611f4f57611f4e611eb9565b5b611f5882611c02565b9050602081019050919050565b82818337600083830152505050565b6000611f87611f8284611f34565b611f19565b905082815260208101848484011115611fa357611fa2611eb4565b5b611fae848285611f65565b509392505050565b600082601f830112611fcb57611fca611eaf565b5b8135611fdb848260208601611f74565b91505092915050565b60008060008060808587031215611ffe57611ffd611af7565b5b600061200c87828801611d44565b945050602061201d87828801611d44565b935050604061202e87828801611c8f565b925050606085013567ffffffffffffffff81111561204f5761204e611afc565b5b61205b87828801611fb6565b91505092959194509250565b600067ffffffffffffffff82111561208257612081611eb9565b5b61208b82611c02565b9050602081019050919050565b60006120ab6120a684612067565b611f19565b9050828152602081018484840111156120c7576120c6611eb4565b5b6120d2848285611f65565b509392505050565b600082601f8301126120ef576120ee611eaf565b5b81356120ff848260208601612098565b91505092915050565b6000806040838503121561211f5761211e611af7565b5b600061212d85828601611d44565b925050602083013567ffffffffffffffff81111561214e5761214d611afc565b5b61215a858286016120da565b9150509250929050565b6000806040838503121561217b5761217a611af7565b5b600061218985828601611d44565b925050602061219a85828601611d44565b9150509250929050565b7f4e487b7100000000000000000000000000000000000000000000000000000000600052602260045260246000fd5b600060028204905060018216806121eb57607f821691505b6020821081036121fe576121fd6121a4565b5b50919050565b60006060820190506122196000830186611d03565b6122266020830185611d99565b6122336040830184611d03565b949350505050565b600081905092915050565b600061225182611bbc565b61225b818561223b565b935061226b818560208601611bd8565b80840191505092915050565b60006122838285612246565b915061228f8284612246565b91508190509392505050565b7f4e487b7100000000000000000000000000000000000000000000000000000000600052601160045260246000fd5b60006122d582611c6e565b91507fffffffffffffffffffffffffffffffffffffffffffffffffffffffffffffffff82036123075761230661229b565b5b600182019050919050565b600081519050919050565b600082825260208201905092915050565b600061233982612312565b612343818561231d565b9350612353818560208601611bd8565b61235c81611c02565b840191505092915050565b600060808201905061237c6000830187611d03565b6123896020830186611d03565b6123966040830185611d99565b81810360608301526123a8818461232e565b905095945050505050565b6000815190506123c281611b2d565b92915050565b6000602082840312156123de576123dd611af7565b5b60006123ec848285016123b3565b91505092915050565b60008190508160005260206000209050919050565b60006020601f8301049050919050565b600082821b905092915050565b6000600883026124577fffffffffffffffffffffffffffffffffffffffffffffffffffffffffffffffff8261241a565b612461868361241a565b95508019841693508086168417925050509392505050565b6000819050919050565b600061249e61249961249484611c6e565b612479565b611c6e565b9050919050565b6000819050919050565b6124b883612483565b6124cc6124c4826124a5565b848454612427565b825550505050565b600090565b6124e16124d4565b6124ec8184846124af565b505050565b5b81811015612510576125056000826124d9565b6001810190506124f2565b5050565b601f82111561255557612526816123f5565b61252f8461240a565b8101602085101561253e578190505b61255261254a8561240a565b8301826124f1565b50505b505050565b600082821c905092915050565b60006125786000198460080261255a565b1980831691505092915050565b60006125918383612567565b9150826002028217905092915050565b6125aa82611bbc565b67ffffffffffffffff8111156125c3576125c2611eb9565b5b6125cd82546121d3565b6125d8828285612514565b600060209050601f83116001811461260b57600084156125f9578287015190505b6126038582612585565b86555061266b565b601f198416612619866123f5565b60005b828110156126415784890151825560018201915060208501945060208101905061261c565b8683101561265e578489015161265a601f891682612567565b8355505b6001600288020188555050505b505050505050565b60006040820190506126886000830185611d03565b6126956020830184611d99565b9392505050565b7f4e487b7100000000000000000000000000000000000000000000000000000000600052601260045260246000fdfea26469706673582212201f70f28ea0173bdbf7936fe02ac56cfbe063a2aecf050634a7cde684d329832064736f6c634300081c0033",
  "linkReferences": {},
  "deployedLinkReferences": {}
}