{
  "_format": "hh-sol-artifact-1",
  "contractName": "TradingPlatform",
  "sourceName": "contracts/TradingPlatform.sol",
  "abi": [
    {
      "inputs": [],
      "name": "ReentrancyGuardReentrantCall",
      "type": "error"
    },
    {
      "inputs": [
        {
          "internalType": "uint256",
          "name": "listingId",
          "type": "uint256"
        }
      ],
      "name": "buyCard",
      "outputs": [],
      "stateMutability": "payable",
      "type": "function"
    },
    {
      "inputs": [
        {
          "internalType": "address",
          "name": "nftContract",
          "type": "address"
        },
        {
          "internalType": "uint256",
          "name": "tokenId",
          "type": "uint256"
        },
        {
          "internalType": "uint256",
          "name": "price",
          "type": "uint256"
        }
      ],
      "name": "listCard",
      "outputs": [],
      "stateMutability": "nonpayable",
      "type": "function"
    },
    {
      "inputs": [
        {
          "internalType": "uint256",
          "name": "",
          "type": "uint256"
        }
      ],
      "name": "listings",
      "outputs": [
        {
          "internalType": "address",
          "name": "seller",
          "type": "address"
        },
        {
          "internalType": "address",
          "name": "nftContract",
          "type": "address"
        },
        {
          "internalType": "uint256",
          "name": "tokenId",
          "type": "uint256"
        },
        {
          "internalType": "uint256",
          "name": "price",
          "type": "uint256"
        }
      ],
      "stateMutability": "view",
      "type": "function"
    }
  ],
  "bytecode": "0x6080604052348015600f57600080fd5b506001600081905550610861806100276000396000f3fe6080604052600436106100345760003560e01c8063c70f5eaa14610039578063d7f126ba14610055578063de74e57b1461007e575b600080fd5b610053600480360381019061004e91906105bf565b6100be565b005b34801561006157600080fd5b5061007c6004803603810190610077919061064a565b610331565b005b34801561008a57600080fd5b506100a560048036038101906100a091906105bf565b6104c4565b6040516100b594939291906106bb565b60405180910390f35b6100c6610534565b6000600160008381526020019081526020016000206040518060800160405290816000820160009054906101000a900473ffffffffffffffffffffffffffffffffffffffff1673ffffffffffffffffffffffffffffffffffffffff1673ffffffffffffffffffffffffffffffffffffffff1681526020016001820160009054906101000a900473ffffffffffffffffffffffffffffffffffffffff1673ffffffffffffffffffffffffffffffffffffffff1673ffffffffffffffffffffffffffffffffffffffff16815260200160028201548152602001600382015481525050905080606001513410156101ef576040517f08c379a00000000000000000000000000000000000000000000000000000000081526004016101e69061075d565b60405180910390fd5b806000015173ffffffffffffffffffffffffffffffffffffffff166108fc349081150290604051600060405180830381858888f19350505050158015610239573d6000803e3d6000fd5b50806020015173ffffffffffffffffffffffffffffffffffffffff166323b872dd303384604001516040518463ffffffff1660e01b815260040161027f9392919061077d565b600060405180830381600087803b15801561029957600080fd5b505af11580156102ad573d6000803e3d6000fd5b5050505060016000838152602001908152602001600020600080820160006101000a81549073ffffffffffffffffffffffffffffffffffffffff02191690556001820160006101000a81549073ffffffffffffffffffffffffffffffffffffffff02191690556002820160009055600382016000905550505061032e61057a565b50565b8273ffffffffffffffffffffffffffffffffffffffff166323b872dd3330856040518463ffffffff1660e01b815260040161036e9392919061077d565b600060405180830381600087803b15801561038857600080fd5b505af115801561039c573d6000803e3d6000fd5b5050505060405180608001604052803373ffffffffffffffffffffffffffffffffffffffff1681526020018473ffffffffffffffffffffffffffffffffffffffff1681526020018381526020018281525060016000600254815260200190815260200160002060008201518160000160006101000a81548173ffffffffffffffffffffffffffffffffffffffff021916908373ffffffffffffffffffffffffffffffffffffffff16021790555060208201518160010160006101000a81548173ffffffffffffffffffffffffffffffffffffffff021916908373ffffffffffffffffffffffffffffffffffffffff1602179055506040820151816002015560608201518160030155905050600260008154809291906104ba906107e3565b9190505550505050565b60016020528060005260406000206000915090508060000160009054906101000a900473ffffffffffffffffffffffffffffffffffffffff16908060010160009054906101000a900473ffffffffffffffffffffffffffffffffffffffff16908060020154908060030154905084565b600260005403610570576040517f3ee5aeb500000000000000000000000000000000000000000000000000000000815260040160405180910390fd5b6002600081905550565b6001600081905550565b600080fd5b6000819050919050565b61059c81610589565b81146105a757600080fd5b50565b6000813590506105b981610593565b92915050565b6000602082840312156105d5576105d4610584565b5b60006105e3848285016105aa565b91505092915050565b600073ffffffffffffffffffffffffffffffffffffffff82169050919050565b6000610617826105ec565b9050919050565b6106278161060c565b811461063257600080fd5b50565b6000813590506106448161061e565b92915050565b60008060006060848603121561066357610662610584565b5b600061067186828701610635565b9350506020610682868287016105aa565b9250506040610693868287016105aa565b9150509250925092565b6106a68161060c565b82525050565b6106b581610589565b82525050565b60006080820190506106d0600083018761069d565b6106dd602083018661069d565b6106ea60408301856106ac565b6106f760608301846106ac565b95945050505050565b600082825260208201905092915050565b7f496e73756666696369656e74207061796d656e74000000000000000000000000600082015250565b6000610747601483610700565b915061075282610711565b602082019050919050565b600060208201905081810360008301526107768161073a565b9050919050565b6000606082019050610792600083018661069d565b61079f602083018561069d565b6107ac60408301846106ac565b949350505050565b7f4e487b7100000000000000000000000000000000000000000000000000000000600052601160045260246000fd5b60006107ee82610589565b91507fffffffffffffffffffffffffffffffffffffffffffffffffffffffffffffffff82036108205761081f6107b4565b5b60018201905091905056fea2646970667358221220c8a701fc8981310ea979ae2a1106b63d4e88b840db330dfedc26d9a0eb76477264736f6c634300081c0033",
  "linkReferences": {},
  "deployedLinkReferences": {}
}