{
  "_format": "hh-sol-artifact-1",
  "contractName": "TradingPlatform",
  "sourceName": "contracts/TradingPlatform.sol",
  "abi": [
    {
      "inputs": [],
      "name": "ReentrancyGuardReentrantCall",
      "type": "error"
    },
    {
      "inputs": [
        {
          "internalType": "uint256",
          "name": "listingId",
          "type": "uint256"
        }
      ],
      "name": "buyCard",
      "outputs": [],
      "stateMutability": "payable",
      "type": "function"
    },
    {
      "inputs": [],
      "name": "getListingCount",
      "outputs": [
        {
          "internalType": "uint256",
          "name": "",
          "type": "uint256"
        }
      ],
      "stateMutability": "view",
      "type": "function"
    },
    {
      "inputs": [
        {
          "internalType": "address",
          "name": "nftContract",
          "type": "address"
        },
        {
          "internalType": "uint256",
          "name": "tokenId",
          "type": "uint256"
        },
        {
          "internalType": "uint256",
          "name": "price",
          "type": "uint256"
        }
      ],
      "name": "listCard",
      "outputs": [],
      "stateMutability": "nonpayable",
      "type": "function"
    },
    {
      "inputs": [
        {
          "internalType": "uint256",
          "name": "",
          "type": "uint256"
        }
      ],
      "name": "listings",
      "outputs": [
        {
          "internalType": "address",
          "name": "seller",
          "type": "address"
        },
        {
          "internalType": "address",
          "name": "nftContract",
          "type": "address"
        },
        {
          "internalType": "uint256",
          "name": "tokenId",
          "type": "uint256"
        },
        {
          "internalType": "uint256",
          "name": "price",
          "type": "uint256"
        }
      ],
      "stateMutability": "view",
      "type": "function"
    },
    {
      "inputs": [
        {
          "internalType": "address",
          "name": "operator",
          "type": "address"
        },
        {
          "internalType": "address",
          "name": "from",
          "type": "address"
        },
        {
          "internalType": "uint256",
          "name": "tokenId",
          "type": "uint256"
        },
        {
          "internalType": "bytes",
          "name": "data",
          "type": "bytes"
        }
      ],
      "name": "onERC721Received",
      "outputs": [
        {
          "internalType": "bytes4",
          "name": "",
          "type": "bytes4"
        }
      ],
      "stateMutability": "pure",
      "type": "function"
    },
    {
      "inputs": [
        {
          "internalType": "address",
          "name": "",
          "type": "address"
        }
      ],
      "name": "pendingWithdrawals",
      "outputs": [
        {
          "internalType": "uint256",
          "name": "",
          "type": "uint256"
        }
      ],
      "stateMutability": "view",
      "type": "function"
    },
    {
      "inputs": [],
      "name": "withdraw",
      "outputs": [],
      "stateMutability": "nonpayable",
      "type": "function"
    }
  ],
  "bytecode": "0x6080604052348015600f57600080fd5b506001600081905550610cf5806100276000396000f3fe6080604052600436106100705760003560e01c8063c70f5eaa1161004e578063c70f5eaa146100f4578063d7f126ba14610110578063de74e57b14610139578063f3f437031461017957610070565b8063150b7a02146100755780633ccfd60b146100b257806387ed92d7146100c9575b600080fd5b34801561008157600080fd5b5061009c600480360381019061009791906108eb565b6101b6565b6040516100a991906109ae565b60405180910390f35b3480156100be57600080fd5b506100c76101cb565b005b3480156100d557600080fd5b506100de6102f1565b6040516100eb91906109d8565b60405180910390f35b61010e600480360381019061010991906109f3565b6102fb565b005b34801561011c57600080fd5b5061013760048036038101906101329190610a20565b61057d565b005b34801561014557600080fd5b50610160600480360381019061015b91906109f3565b610710565b6040516101709493929190610a82565b60405180910390f35b34801561018557600080fd5b506101a0600480360381019061019b9190610ac7565b610780565b6040516101ad91906109d8565b60405180910390f35b600063150b7a0260e01b905095945050505050565b6101d3610798565b6000600360003373ffffffffffffffffffffffffffffffffffffffff1673ffffffffffffffffffffffffffffffffffffffff1681526020019081526020016000205490506000811161025a576040517f08c379a000000000000000000000000000000000000000000000000000000000815260040161025190610b51565b60405180910390fd5b6000600360003373ffffffffffffffffffffffffffffffffffffffff1673ffffffffffffffffffffffffffffffffffffffff168152602001908152602001600020819055503373ffffffffffffffffffffffffffffffffffffffff166108fc829081150290604051600060405180830381858888f193505050501580156102e5573d6000803e3d6000fd5b50506102ef6107de565b565b6000600254905090565b610303610798565b6000600160008381526020019081526020016000206040518060800160405290816000820160009054906101000a900473ffffffffffffffffffffffffffffffffffffffff1673ffffffffffffffffffffffffffffffffffffffff1673ffffffffffffffffffffffffffffffffffffffff1681526020016001820160009054906101000a900473ffffffffffffffffffffffffffffffffffffffff1673ffffffffffffffffffffffffffffffffffffffff1673ffffffffffffffffffffffffffffffffffffffff168152602001600282015481526020016003820154815250509050806060015134101561042c576040517f08c379a000000000000000000000000000000000000000000000000000000000815260040161042390610bbd565b60405180910390fd5b3460036000836000015173ffffffffffffffffffffffffffffffffffffffff1673ffffffffffffffffffffffffffffffffffffffff168152602001908152602001600020600082825461047f9190610c0c565b92505081905550806020015173ffffffffffffffffffffffffffffffffffffffff166323b872dd303384604001516040518463ffffffff1660e01b81526004016104cb93929190610c40565b600060405180830381600087803b1580156104e557600080fd5b505af11580156104f9573d6000803e3d6000fd5b5050505060016000838152602001908152602001600020600080820160006101000a81549073ffffffffffffffffffffffffffffffffffffffff02191690556001820160006101000a81549073ffffffffffffffffffffffffffffffffffffffff02191690556002820160009055600382016000905550505061057a6107de565b50565b8273ffffffffffffffffffffffffffffffffffffffff166323b872dd3330856040518463ffffffff1660e01b81526004016105ba93929190610c40565b600060405180830381600087803b1580156105d457600080fd5b505af11580156105e8573d6000803e3d6000fd5b5050505060405180608001604052803373ffffffffffffffffffffffffffffffffffffffff1681526020018473ffffffffffffffffffffffffffffffffffffffff1681526020018381526020018281525060016000600254815260200190815260200160002060008201518160000160006101000a81548173ffffffffffffffffffffffffffffffffffffffff021916908373ffffffffffffffffffffffffffffffffffffffff16021790555060208201518160010160006101000a81548173ffffffffffffffffffffffffffffffffffffffff021916908373ffffffffffffffffffffffffffffffffffffffff16021790555060408201518160020155606082015181600301559050506002600081548092919061070690610c77565b9190505550505050565b60016020528060005260406000206000915090508060000160009054906101000a900473ffffffffffffffffffffffffffffffffffffffff16908060010160009054906101000a900473ffffffffffffffffffffffffffffffffffffffff16908060020154908060030154905084565b60036020528060005260406000206000915090505481565b6002600054036107d4576040517f3ee5aeb500000000000000000000000000000000000000000000000000000000815260040160405180910390fd5b6002600081905550565b6001600081905550565b600080fd5b600080fd5b600073ffffffffffffffffffffffffffffffffffffffff82169050919050565b600061081d826107f2565b9050919050565b61082d81610812565b811461083857600080fd5b50565b60008135905061084a81610824565b92915050565b6000819050919050565b61086381610850565b811461086e57600080fd5b50565b6000813590506108808161085a565b92915050565b600080fd5b600080fd5b600080fd5b60008083601f8401126108ab576108aa610886565b5b8235905067ffffffffffffffff8111156108c8576108c761088b565b5b6020830191508360018202830111156108e4576108e3610890565b5b9250929050565b600080600080600060808688031215610907576109066107e8565b5b60006109158882890161083b565b95505060206109268882890161083b565b945050604061093788828901610871565b935050606086013567ffffffffffffffff811115610958576109576107ed565b5b61096488828901610895565b92509250509295509295909350565b60007fffffffff0000000000000000000000000000000000000000000000000000000082169050919050565b6109a881610973565b82525050565b60006020820190506109c3600083018461099f565b92915050565b6109d281610850565b82525050565b60006020820190506109ed60008301846109c9565b92915050565b600060208284031215610a0957610a086107e8565b5b6000610a1784828501610871565b91505092915050565b600080600060608486031215610a3957610a386107e8565b5b6000610a478682870161083b565b9350506020610a5886828701610871565b9250506040610a6986828701610871565b9150509250925092565b610a7c81610812565b82525050565b6000608082019050610a976000830187610a73565b610aa46020830186610a73565b610ab160408301856109c9565b610abe60608301846109c9565b95945050505050565b600060208284031215610add57610adc6107e8565b5b6000610aeb8482850161083b565b91505092915050565b600082825260208201905092915050565b7f4e6f2066756e647320746f207769746864726177000000000000000000000000600082015250565b6000610b3b601483610af4565b9150610b4682610b05565b602082019050919050565b60006020820190508181036000830152610b6a81610b2e565b9050919050565b7f496e73756666696369656e74207061796d656e74000000000000000000000000600082015250565b6000610ba7601483610af4565b9150610bb282610b71565b602082019050919050565b60006020820190508181036000830152610bd681610b9a565b9050919050565b7f4e487b7100000000000000000000000000000000000000000000000000000000600052601160045260246000fd5b6000610c1782610850565b9150610c2283610850565b9250828201905080821115610c3a57610c39610bdd565b5b92915050565b6000606082019050610c556000830186610a73565b610c626020830185610a73565b610c6f60408301846109c9565b949350505050565b6000610c8282610850565b91507fffffffffffffffffffffffffffffffffffffffffffffffffffffffffffffffff8203610cb457610cb3610bdd565b5b60018201905091905056fea2646970667358221220899bd1b5a08cb96cc7a98ec9f2fb905ebe40b9780ac74e453c948d59983511aa64736f6c634300081c0033",
  "linkReferences": {},
  "deployedLinkReferences": {}
}